:020000006D2869
:10000600003083122706031D0A2801302606031D29
:100016001D289530FD00FD0B0E2800000000910103
:100026000C3095006A30FD00FD0B17280000950185
:100036000515322800302706031D23280030260622
:10004600031D32284930FD00FD0B272891010C3095
:100056009500C130FD00FD0B2E2895010515080001
:1000660008308312A5002508003C03184928A41F60
:1000760042280130A6000030A70003204528A6012B
:0E008600A7010320A40D2410A50336280800AE
:100094008312230883169B009C131C141A08F00077
:0200A400080052
:1000A60001308312A6000030A70003202308A40015
:1000B6003320A601A70103200130A6000030A700C7
:1000C6000320A601A70103200130A6000030A700E7
:0400D60003200800FB
:1000DA008312A3014A2070088312A20083168501A5
:1000EA0083129F01073099009A0105150430920086
:1000FA001930831692000D30831293001C3095003C
:10010A0095012208A30053204130FC00EE30FD0087
:0E011A00FD0B8D28FC0B8D28000086289328F5
:02400E000404A8
:00000001FF
